:020000040800F2
:10000000E00D002045010008050F0008D10E000892
:10001000030F0008A10A00081B24000800000000CC
:10002000000000000000000000000000471500086C
:10003000430C000800000000BD120008E91600088B
:100040005F0100085F0100085F0100085F01000810
:100050005F0100085F010008450C00085F0100080F
:100060005F0100085F0100085F0100085F010008F0
:100070005F0100085F010008A30A00085F01000893
:100080005F0100085F0100085F0100085F010008D0
:100090005F0100085F0100085F0100085F010008C0
:1000A0005F0100085F0100085F0100085F010008B0
:1000B000F317000815180008411800085F01000830
:1000C0005F0100085F0100085F0100085F01000890
:1000D0005F0100088D2000081D2200085F01000854
:1000E0005F0100085F0100085F0100085F01000870
:1000F0005F0100085F0100085F0100085F01000860
:100100005F0100085F0100085F0100085F0100084F
:100110005F0100085F0100085F0100085F0100083F
:100120005F0100085F0100085F0100085F0100082F
:10013000DFF80CD000F02CFC00480047593D0008C7
:10014000E00D00200648804706480047FEE7FEE72E
:10015000FEE7FEE7FEE7FEE7FEE7FEE7FEE7FEE777
:10016000F916000831010008D2B201E000F8012BB5
:10017000491EFBD270470022F6E710B513460A4627
:1001800004461946FFF7F0FF204610BDF0B480EAA0
:100190000102D40F4200B2EB410F02D202460846E0
:1001A00011464A0042D0C30DDDB2C1F3C752AD1AA9
:1001B000202D35DAC1F3160141F4000204B1524298
:1001C000C5F1200602FA06F12A411044B3EBD05FD4
:1001D00023D0C4B1012DA0EBC35009DCF0BC4FF01B
:1001E000004202EAC352DBB200F5000000F0BDBAE3
:1001F000400000F1807000EBC350A0F1807040EA35
:10020000D170490009E0490841EAC071A0EBC35030
:1002100000F50000400800EBC350F0BC00F09CBAB1
:100220006142012202EB4101001BF6E7F0BC70477E
:1002300081F00041AAE780F00040A7E780EA0102D0
:1002400010B502F00043400022D04A001FD0010E3A
:1002500001EB1261C0F35600C2F3560240F40000F5
:1002600042F40002A0FB022000047F39140400D0F5
:10027000401C50EA124001D44000491EC2B20C0694
:1002800004EBD010401C4008802A02D003E000207C
:1002900010BD20F00100002900DA0020184310BD35
:1002A00030B480EA010202F0004530F0004221F053
:1002B000004013D090B1C30DD40DC2F31601C0F3AA
:1002C0001600E41A41F4000140F400027D3491422A
:1002D00001D3641C00E04900002C02DA30BC00208D
:1002E00070474FF400000023914201D3891A034361
:1002F00040084FEA4101F7D151B1914202D14FF08C
:10030000004105E002D24FF0010101E06FF0010170
:1003100003EBC450284430BC00F01EBA2DE9FE4F58
:10032000804681EA0300C00F0C46009021F0004196
:1003300023F00045B8EB0200A94105D24046214612
:1003400090461C460B46024623F00040104347D01F
:10035000270DC7F30A00C3F30A510290401A019017
:1003600040286BDAC3F3130040F4801B00989246D8
:1003700020B10023D2EB030A63EB0B0B0198594623
:10038000C0F14002504600F0B6F906460D46504610
:100390005946019A00F0CEF910EB080061410024A3
:1003A00087EA115284EAE7731A4340D0009A62B395
:1003B000019A012A4FEA075215DC001B61EB02018A
:1003C0004FF0004202EA0752CDE90042001C41F51D
:1003D000801132462B4600F005FA03B0BDE8F08FDD
:1003E00040462146F9E7001B61EB0201001C41F584
:1003F000801300185B412018A2F5001747EB03019A
:1004000040EAD570B6196D4111E06D084FEA360625
:1004100045EAC0754FEA0752001B61EB0201001C60
:1004200041F5801149084FEA300000195141324628
:100430002B4603B0BDE8F04F00F0C5B9009801228B
:1004400040000023D0EB020263EBE07300982146EA
:100450004FEAE074B8EB000061EB0401E9E783F0D8
:1004600000435BE781F0004158E72DE9FE4F81EA48
:10047000030404F0004421F0004100944FF0000B0D
:1004800023F0004350EA01045ED052EA03045BD03B
:10049000C3F30A54C1F30A552C44A4F2F334019473
:1004A000A0FB0254C1F3130141F48011C3F3130301
:1004B00043F4801301FB024400FB034E840A970AB5
:1004C00044EA815447EA8357A4FB076802958D0AE2
:1004D00005FB07854FEA932C04FB0C542705029D6E
:1004E0004FEA065847EA1637B5EB08056EEB070CDE
:1004F000870E920E47EA811742EA8312A7FB020198
:10050000B6EB0B0164EB00042B0D43EA0C335E18D1
:1005100044EB1C50DA465146E7FB0201C5F31304D5
:100520004FEA0B3343EA14534FEA0432019C43EA87
:100530000603A4F10C040294009CCDE900B400F081
:1005400051F903B0BDE8F08F00200146F9E770B51E
:1005500021F0004303430CD0C1F30A550024D5EB2E
:10056000040564EB0403D617AD1AB34102DB002087
:10057000014670BD201841EB025170BD9623002248
:10058000114600F0F2B80EB5C10F80EAE0700844E1
:10059000CA07002140F233438DE80E000A460B469D
:1005A00000F020F903B000BD00F0004230F0004040
:1005B0000AD0C10D01F56071C0F3160042EA015185
:1005C000C2084007114370470020014670470000F1
:1005D00030B5041E71F1000404DB4FF000444042CA
:1005E00064EB0101141E73F1000405DB1C464FF09F
:1005F0000043524263EB04038B4208BF824230BD8A
:1006000030B5041E71F1000404DB4FF00044404299
:1006100064EB0101141E73F1000405DB1C464FF06E
:100620000043524263EB0403994208BF904230BD3D
:1006300001F0004330B421F0004150EA010206D03D
:100640000A0DA2F56072C1F31301002A02DC30BC6E
:1006500000207047440F44EAC104C100E01830BCD8
:1006600000EBC25000F078B830B50B4601460020D0
:100670002022012409E021FA02F59D4205D303FA64
:1006800002F5491B04FA02F52844151EA2F10102E5
:10069000F1DC30BD2DE9F05F0546002092469B4617
:1006A00088460646814640241BE028464146474688
:1006B000224600F02FF853465A46C01A914110D3F3
:1006C00011461846224600F016F82D1A67EB01086D
:1006D0004F4622460120002100F00DF817EB0009DB
:1006E0004E41201EA4F10104DFDC484631462A4673
:1006F0004346BDE8F09F202A04DB203A00FA02F1CD
:10070000002070479140C2F1200320FA03F31943FF
:1007100090407047202A04DB203A21FA02F00021A1
:10072000704721FA02F3D040C2F120029140084301
:1007300019467047202A06DBCB17203A41FA02F00F
:1007400043EAE07306E041FA02F3D040C2F120022E
:1007500091400843194670470029A8BF7047401CC4
:10076000490008BF20F00100704710B4B0FA80FCC7
:1007700000FA0CF050EA010404BF10BC704749B104
:10078000CCF1200421FA04F411FA0CF118BF012174
:1007900021430843A3EB0C01CB1D4FEA00614FEA54
:1007A000102042BF002010BC704700EBC350104423
:1007B0000029A4BF10BC7047401C490008BF20F0AE
:1007C000010010BC704710B5141E73F1000408DA64
:1007D000401C41F1000192185B411A4301D120F005
:1007E000010010BD2DE9F04D92469B4611B1B1FAC2
:1007F00081F202E0B0FA80F220329046FFF77BFFF0
:1008000004460F4640EA0A0041EA0B0153465A46A5
:10081000084313D0114653EA010019D0C8F1400231
:100820005046FFF777FF05460E465046594642466A
:10083000FFF761FF084305D0012004E02046394658
:10084000BDE8F08D0020054346EAE0762C433743AF
:100850000A986305E40AA0EB08000022FD0A44EAB6
:1008600047540A3002D500200146E9E70105101976
:100870006941DDE9084500196941BDE8F04DA2E78D
:100880002DE9F04D81EA030404F0004B21F000450E
:1008900014464FF0000A23F0004150EA050220D030
:1008A00054EA01021DD0C5F30A570246C5F31303EB
:1008B000C1F31300C1F30A5640F4801543F48013CA
:1008C000A7EB0608101BD64608F2FD3873EB0500AF
:1008D00002D308F1010801E092185B41B8F1000F62
:1008E00003DA00200146BDE8F08D00204FF48011AE
:1008F000064684460EE0171B73EB050705D3121B53
:1009000063EB050306434CEA010C49084FEA30004B
:1009100092185B4150EA0107EDD152EA030012D070
:1009200082EA040083EA0501084305D0101BAB41AD
:1009300006D20122002306E000224FF0004302E02D
:100940006FF0010253101AEB06004CEB085110EB4C
:100950000A0041EB0B01BDE8F04DFFF734BFC1F3D6
:100960000A52C1F3130140F2FF3341F480119A425D
:1009700002DA00200146704740F233439A42A2F265
:10098000334202DC5242FFF7C5BEFFF7B4BE00009F
:10099000064C074D06E0E06840F0010394E80700CC
:1009A00098471034AC42F6D3FFF7C6FB90470008D7
:1009B000B047000870B58C1810F8015B15F00703FC
:1009C00001D110F8013B2A1106D110F8012B03E0E8
:1009D00010F8016B01F8016B5B1EF9D12B0705D4F0
:1009E0000023521E0DD401F8013BFAE710F8013B39
:1009F000CB1A921C03E013F8015B01F8015B521E55
:100A0000F9D5A142D8D3002070BD000010B503F085
:100A100029FA03F092FA02F0E0FD012002F0DCFC7A
:100A2000401C1BD003F086FA0D4802F079FB012030
:100A300002F004FE4FF2F00002F05CFE332002F000
:100A4000E0FD48F2B60002F05AFE002002F08AFEF5
:100A5000BDE810400121034802F0D8BDFEE70000C8
:100A60001400002000D003240B48612103220170F0
:100A700088214170F021C170017100218170827262
:100A80007122064B427219221A603322C27101721E
:100A90000121417181717047A002002010000020E7
:100AA000FEE710B54FF40054204600F095F80128F9
:100AB00006D1204600F006F8BDE8104001F0E6B887
:100AC00010BD0000C10002D502490860704702490C
:100AD0004860704704040240000002400029016899
:100AE00002D041F0010102E04FF6FE7211400160B8
:100AF0007047000001684FF6FE721140016000214E
:100B0000016041608160C1603149314A08399042D9
:100B100003D1486840F00F0006E02D4A143290429D
:100B200004D1486840F0F00048607047284A2832F5
:100B3000904203D1486840F47060F5E7244A3C32A3
:100B4000904203D1486840F47040EDE7204A5032AB
:100B5000904203D1486840F47020E5E71C4A6432B3
:100B6000904203D1486840F47000DDE7184A7832BB
:100B7000904203D1486840F07060D5E7154A111FD4
:100B8000904203D1086840F00F0006E0114A143289
:100B9000904204D1086840F0F000086070470D4AA8
:100BA0002832904203D1086840F47060F5E7094AA2
:100BB0003C32904203D1086840F47040EDE7054AAA
:100BC00050329042EAD1086840F47020E5E7000016
:100BD000080002400804024001460020CA0001D576
:100BE000034A00E0034A12680A4200D0012070471D
:100BF0000004024000000240002A026801D00A43BB
:100C000000E08A430260704730B5036847F6F0722F
:100C100093430C6A8A682243D1E904452C4322435A
:100C20008C692243CC6922434C6A22438C6A22435A
:100C30001A430260CA6842600A6882604968C160FB
:100C400030BD704710B5012000F01EF8002807D015
:100C5000044800688047BDE81040012000F004B857
:100C600010BD0000540000200149086070470000DA
:100C7000140401400349024600200968114200D0D3
:100C80000120704700040140064A01460020126816
:100C9000044B0A4014331B680B4202D0002A00D0D8
:100CA000012070470004014030B51A498379026879
:100CB00053B30B6893430B600A1D13680468A34386
:100CC000136002790A441368046823431360114ACD
:100CD000083213680468A3431360131D1C68056879
:100CE000AC431C604479102C05D021440A6800688C
:100CF00002430A6030BD116804682143116019681D
:100D000000680143196030BD0079084401689143CF
:100D1000016030BD0004014038B501217D2000F0A4
:100D2000E7FA4FF6FF70ADF800000020144C8DF884
:100D300003006946204600F041F86946114800F07A
:100D40003DF86946104800F039F869460F4800F050
:100D500035F869460E4800F031F80E20ADF8000075
:100D600010208DF8030003208DF80200694620460C
:100D700000F024F80021012000F072F8002038BDB6
:100D800000080140000C0140001001400014014027
:100D90000018014010B58A0721F003040649130F1B
:100DA00021440F228C689A4094438C608A68984052
:100DB00002438A6010BD000000000140F0B5CA780F
:100DC000002502F00F03D20601D58A7813430A7872
:100DD0004FF00F0E12F0FF0F4FF001021CD004680D
:100DE0000F8802FA05F63740B74211D14FEA850C59
:100DF0000EFA0CF724EA070703FA0CF43C43CF7809
:100E0000282F02D0482F02D002E0466100E00661A0
:100E10006D1C082DE4D304600C88FF2C1ED9446897
:100E20005FF0000606F1080702FA07F50F882F4069
:100E3000AF420FD14FEA860C0EFA0CF7BC4303FA0F
:100E40000CF73C43CF78282F00D14561CF78482F4D
:100E500000D10561761C082EE4D34460F0BD00008B
:100E6000F0B5144C002801DAE36900E06368420D34
:100E7000120185B2C0F301579540C0F30346032F1A
:100E800005D0C2020AD50322B240934307E023F003
:100E90007062636823F07063636002E0AB4343F009
:100EA000706201B12A43002801DAE261F0BD62609C
:100EB000F0BD0000000001404161704701617047D2
:100EC0004FF6FF710180022181700421C1707047CB
:100ED000FEE710B5032002F009FD642002F0E6F8F9
:100EE000032002F0EDFC642002F0E0F8032002F0A1
:100EF000FDFC642002F0DAF8BDE81040032002F0A7
:100F0000DFBCFEE7704700007FB50124ADF80C4060
:100F100028208DF80F0003A91348FFF74FFF002189
:100F20000120FFF737FF00258DF8045008208DF8C9
:100F3000050000948DF806406846FFF7B5FE4FF4B3
:100F4000407000F045F806208DF808000F208DF85D
:100F500009008DF80A508DF80B4002A800F006F841
:100F600004B0002070BD0000000C014070B50F23DC
:100F7000C47801780122F4B1144C2468457804F453
:100F8000E064C4F5E064240AC4F10406E340847814
:100F9000B5401C402C4301F1E021230181F80034CD
:100FA000007800F01F018A404009800000F1E02035
:100FB000C0F8002170BD01F01F0082404809800088
:100FC00000F1E020C0F8802170BD00000CED00E0D1
:100FD0000249084302490860704700000000FA0512
:100FE0000CED00E00907090E002806DA00F00F00FA
:100FF00000F1E02080F8141D704700F1E02080F837
:101000000014704770B5002404F1B000C0B2002194
:1010100000F0B8F80021084600F0B4F800211020D4
:1010200000F0B0F800250121002000F0ABF86D1CA5
:10103000EDB2872DF7D3641CE4B2082CE4D370BD65
:1010400038B50121082000F053F94FF43C44ADF8C5
:10105000004010208DF803000320174D8DF802008A
:1010600069462846FFF7AAFE21462846FFF726FFD5
:10107000EC1421462846FFF721FF642002F016F801
:1010800021462846FFF718FFC82002F00FF8214636
:101090002846FFF713FF094D00240021285D00F0CA
:1010A00071F8641CE4B20C2CF7D3FFF7ABFF0021FE
:1010B000084600F005F838BD000C01406002002031
:1010C00010B50446B031C8B2002100F05BF8102022
:1010D00040EA1410002100F055F804F00F00BDE8BC
:1010E000104040F00100002100F04CB82DE9F04123
:1010F000203A00240D46D7B27F2802D900208D1C4B
:10110000EDB2801CC0B280462946FFF7D9FF0F4ED2
:1011100004EB07100121305C00F034F8641CE4B2E9
:10112000082CF5D36D1CE9B24046FFF7C9FF002437
:1011300004EB071030440121007A00F023F8641C0E
:10114000E4B2082CF4D3BDE8F0810000AE40000802
:101150002DE9F04117460E46044600250CE03146C5
:101160002046FFF7C3FF0834E4B2782C02D90024EC
:10117000B61CF6B26D1CEDB27A5D002AEFD1BDE867
:10118000F08100002DE9F0471C4D06464FF4806ABF
:1011900000295146284602D0FFF790FE01E0FFF7F4
:1011A0008BFE4FF4805841462846FFF785FE002409
:1011B0004FF400494FF4005739462846FFF77CFEAC
:1011C00030064946284602D5FFF778FE01E0FFF7D2
:1011D00073FE39462846FFF771FE7006641C060E42
:1011E000E4B2082CE8D341462846FFF767FE514693
:1011F0002846BDE8F047FFF761BE0000000C014043
:101200002DE9F0430E461546871904460021164A7B
:1012100001E0491C89B252F831C0BCF1000F02D084
:101220001429F6D901E0142904D3FF2018700020F6
:10123000BDE8F083914642F8310002EBC1028846D6
:1012400016715571957106FB05F100F02EF800201E
:101250006D1E04E027603C46401C374480B2A84223
:10126000F8DB09EBC800E3E7BC03002041B10268EA
:1012700041F8042D01608179491C8171002070477B
:10128000FF20704702460068937953B15B1E13F04C
:10129000FF03937101D00368136000220A70001DE0
:1012A0007047FF200870002070470022134602E0BC
:1012B0008354521C92B28A42FAD37047704700009E
:1012C000044A0029D16901D0014300E08143D16182
:1012D0007047000000100240044A0029116901D043
:1012E000014300E08143116170470000001002409B
:1012F000044A0029916901D0014300E081439161D2
:101300007047000000100240044A0029D16801D053
:10131000014300E08143D1607047000000100240AB
:1013200030B5224A5168224B11F00C0103D0042938
:1013300003D0082903D0036016E01E4913E051686A
:10134000536801F470114FF0020413F4803F04EB72
:10135000914104D053689B0303D5154B02E0164B13
:1013600000E0144B5943016051680F2303EA111147
:10137000124B5C5C0168E14041605468072505EA56
:1013800014241C5D21FA04F48460546805EAD42412
:101390001B5DD940C1605268032303EA9232074BB8
:1013A0001B1F9A5CB1FBF2F1016130BD00100240DD
:1013B00000127A000024F40000093D0026000020FD
:1013C000034A118821F03801014311807047000061
:1013D000003001400029018802D041F0400101E0C5
:1013E00021F0400101807047F0B5294E87B03046AA
:1013F00000F052F80021ADF800104FF48270ADF803
:101400000200ADF808107015ADF80A001024ADF810
:101410000410ADF80C400720ADF80610ADF80E1022
:10142000ADF810006946304600F067F8A020ADF82E
:10143000140018208DF81700164F03258DF816504C
:1014400005A93846FFF7BAFC4020ADF81400482043
:101450008DF8170005A93846FFF7B0FCADF8144029
:101460008DF817408DF8165005A93846FFF7A6FCF1
:101470000021304600F05DF801213046FFF7AAFF59
:1014800010213846FFF71AFD07B00020F0BD00001C
:101490000030014000080140114910B588420AD1CE
:1014A000841401212046FFF72FFF2046BDE810409D
:1014B0000021FFF729BF0B49884202D10121041402
:1014C00004E0094988420AD10121C4132046FFF7EC
:1014D00003FF2046BDE810400021FFF7FDBE10BD10
:1014E0000030014000380040003C0040024600202F
:1014F00012890A4200D00120704730B502884C881A
:1015000002F441530A88CD8822438C882C4322431D
:101510000C8922434C8922438C892243CC89224363
:101520001A430280828B22F400628283098A01823C
:1015300030BD0029818802D041F0040101E021F092
:1015400004018180704770470CB500212A48019141
:101550000091026842F4803202604FF4A063026896
:1015600002F400320092019A521C0192009A12B9C0
:10157000019A9A42F3D1026892033BD5012100916E
:101580001E490A6842F010020A600A6822F003024B
:101590000A600A6842F002020A60416841604168DC
:1015A0004160416841F480614160416821F47C11EF
:1015B0004160416841F4E8114160416821F47C11C7
:1015C0004160416841F4F8114160016841F0807167
:1015D000016001688901FCD5416821F00301416087
:1015E000416841F0020141604168C1F38101022973
:1015F000FAD10CBD00910CBD001002400020024049
:1016000070B50020224C01462154401C7F28FBD39A
:10161000402001F091FE00210F2001F05DFF400409
:101620002DD50021102001F057FFC0F30901194802
:101630007F29018018D80022154801F09EFF164D21
:101640001648AC60E1794171217A8171A17881708D
:10165000607A442808D1032002F048F901F046FDE1
:1016600028606868401C6860082001F065FE002062
:1016700002F04CF8BDE87040002001F087BF084A36
:1016800000210F2002F0D5F8082001F055FEF1E707
:10169000FE0200202000002004000020A002002004
:1016A00000D0272470B50F484FF47A710068B0FB62
:1016B000F1F0B0F1807F14D220F07F404FF0E024B1
:1016C000401E606165170F212846FFF78BFC002044
:1016D000A0610720206105212846FFF783FC002038
:1016E00070BDFEE73800002002480168491C016017
:1016F00070470000000000200F4810B5016841F05D
:101700000101016041680D4A1140416001680C4AC5
:1017100011400160016821F480210160416821F4D9
:10172000FE0141604FF41F018160FFF70DFF054985
:101730004FF00060086010BD001002400000FFF88C
:10174000FFFFF6FE08ED00E008B51C208DF8000054
:1017500000208DF801000A208DF8020001208DF88C
:1017600003006846FFF702FC08BD30B54FF0804526
:1017700087B0284600F0CCF8FFF7E6FF01210846C5
:10178000FFF79EFD01221146284600F085F96846C4
:1017900000F02AFA42F20F70ADF804004720ADF8CD
:1017A00000000024ADF80640ADF802406946284626
:1017B00000F0CCF903A800F0B7F941F28730ADF89A
:1017C0001200ADF80C40ADF8144003A9284600F013
:1017D0006BF91021284600F0B1F90121284600F0EC
:1017E0007DF80121284600F089F800F099FB07B048
:1017F00030BD10B501218C07204600F041F90128C9
:1018000007D10121204600F073F8BDE8104000F038
:10181000D7BA10BD10B5094C0121204600F030F9AF
:10182000002809D00121204600F065F82046BDE8D7
:101830001040012100F062B810BD0000000400401B
:1018400010B5074C0121204600F01AF9002806D0F7
:101850000121204600F04FF802490120086010BD28
:10186000000800404C0000207FB51B4D04460021BD
:10187000284600F043F801210420FFF721FD04EB86
:1018800084004FF0FF3101EB400141F61F40ADF8FD
:101890000410ADF800000024ADF80640ADF8024099
:1018A0006946284600F052F901221146284600F008
:1018B000F3F81E208DF80C008DF80D4004208DF8F3
:1018C0000E0001208DF80F0003A8FFF74FFB012148
:1018D000284600F013F87FBD000800400029018869
:1018E00002D041F0800101E021F0800101807047C9
:1018F000C94301827047C9430182704700290188AA
:1019000002D041F0010101E021F0010101807047A6
:101910004B4910B5884202D10121C41486E0B0F1D0
:10192000804F09D0474988420DD101210220FFF79D
:10193000D3FC0021022064E001210846FFF7CCFC23
:10194000002101205DE04049884206D101210420A8
:10195000FFF7C2FC0021042053E03C49884206D135
:1019600001210820FFF7B8FC0021082049E0384990
:10197000884206D101211020FFF7AEFC0021102083
:101980003FE03449884206D101212020FFF7A4FC22
:101990000021202035E03049884202D10121441441
:1019A00044E02E49884202D10121CC043EE02C497A
:1019B000884202D101210C0538E02A49884202D12F
:1019C00001214C0532E02849884206D101214020FE
:1019D000FFF782FC0021402013E02449884206D111
:1019E00001218020FFF778FC0021802009E02049B8
:1019F00088420AD1841501212046FFF76DFC0021A1
:101A00002046BDE81040FFF767BC1A49884202D162
:101A100001210C040AE01849884202D101214C043A
:101A200004E0164988420AD101218C042046FFF7C0
:101A30006BFC2046BDE810400021FFF765BC10BDDF
:101A4000002C01400004004000080040000C004051
:101A5000001000400014004000340140004C0140E0
:101A6000005001400054014000180040001C00409C
:101A70000020004000400140004401400048014077
:101A800002460020138A92890B4202EA010202D028
:101A9000002A00D001207047002A828901D00A4321
:101AA00000E08A438281704730B5028C22F0010247
:101AB0000284028C8388048B22F0020224F07305D6
:101AC0000C882C430D8915434A882A43114DA8429E
:101AD0000BD0114DA84208D0104DA84205D0104D92
:101AE000A84202D00F4DA8420DD122F008054A8924
:101AF00023F440732A4322F004058A882A438D89FF
:101B00001D43CB892B4383800483C988818602844B
:101B100030BD0000002C0140003401400040014075
:101B20000044014000480140002101804180818043
:101B3000C180018141818181C1817047028922F088
:101B400070020A43028170478184704730B5028871
:101B50001B4B1C4C98420DD0A0420BD0B0F1804FD3
:101B600008D0194DA84205D0184DA84202D0184DF2
:101B7000A84203D122F070054A882A43154DA84295
:101B800006D0154DA84203D022F44075CA882A43D6
:101B900002808A8882850A88028598420AD0A042FB
:101BA00008D00E4A904205D00D4A904202D00D4A0C
:101BB000904201D1097A01860121818230BD000065
:101BC000002C0140003401400004004000080040A7
:101BD000000C004000100040001400400040014094
:101BE00000440140004801404FF6FF718180002110
:101BF0000180C18041800172704700214FF0804018
:101C0000FFF7A2BF70B51F4E05468CB00C4630469C
:101C1000FEF770FF1C48CDE900051020CDE9020455
:101C200000248020CDE904404FF44050CDE9084025
:101C300006940794694630460A94FEF7E5FF0122B0
:101C400002213046FEF7D8FF0E208DF82C008DF8CB
:101C50002D408DF82E4001208DF82F000BA8FFF7A6
:101C600085F901213046FEF739FF074C0122241F78
:101C70008021204600F005FB0121204600F0F7FA04
:101C80000CB070BD44000240043801402DE9F04121
:101C90001D4C1F4F1D486278237807EBC2011426A4
:101CA0000068002549689A421BD0FFF7DFFA607888
:101CB000401CC0B26070142800D36570A068401C3E
:101CC000A060142800D3A66060782178884217D0DD
:101CD00017F8301007EBC0004068BDE8F041FFF78F
:101CE00091BFFFF7C3FA6078401CC0B2607014283F
:101CF00000D36570A068401CA060142800D3A660C3
:101D0000A570BDE8F08100006C02002050000020AA
:101D10005C080020002100E0491C425C002AFBD145
:101D2000C9B200F00BB908B525208DF800000020DD
:101D30008DF8010001208DF802008DF8030068463F
:101D4000FFF714F908BD000038B56846FFF7B8F88A
:101D50004FF40070ADF8000003208DF80200182049
:101D60000A4C8DF8030069462046FFF727F86846BD
:101D7000FFF7A6F82015ADF8000004208DF8030049
:101D800069462046FFF71AF838BD000000080140F8
:101D9000014800F02FBB00000038014010B530B101
:101DA000044A01291061D17001D100F0A9F8002086
:101DB00010BD00006C020020C9B200F0BFB80000E6
:101DC00010B5054C0548217B00F0B8F80020E06014
:101DD000BDE8104000F0A4B86C020020FC08002010
:101DE00010B5114CD4E9030188421CD2FFF7D0FF93
:101DF0000E4AE1685054491CE1602069814207D3D2
:101E00000020E06000F08CF808482169FFF7D4FF5B
:101E1000E078012803D0BDE8104000F081B8BDE8AB
:101E2000104000F063B810BD6C020020FC080020D8
:101E30000146014800F0E2BA003801402DE9F041C6
:101E4000274CA068142849D000F070F8254D607820
:101E500015F8301059B12278904208D0491E05F883
:101E6000301005EBC00021794068405C26E0217805
:101E70001427002688422AD005EBC00041681A4882
:101E80000068FFF7F3F96078401CC0B26070142856
:101E900000D36670A068401CA060142800D3A7601F
:101EA00026716078217888420ED015F83010491ECE
:101EB00005F8301005EBC00040680078FFF7B8FF68
:101EC0002079401C207105E0A670A76002E0A67092
:101ED000A7602671BDE8F04100F01AB8BDE8F081B6
:101EE0006C0200205C0800205000002010B5FFF7B5
:101EF00084FE0121BDE810408807FFF7FFBC000009
:101F0000012240F22551014800F005BA0038014095
:101F1000012240F22661014800F0FDB9003801407D
:101F200000214FF08040FFF7E9BC0000002240F2A2
:101F30002661014800F0EFB9003801402DE9F84F63
:101F40000D00064615D0FFF7F1FF3C27B5FBF7F172
:101F500007FB11500028B5FBF7F001D0401CC0B2C0
:101F60002E4CA168814206D2FFF7D2FFFF20BDE8C8
:101F7000F88F0020FBE7DFF8A8A06946DAF8000038
:101F8000FFF780F90146DFF89C8020784FF00009C8
:101F900008EBC0021428516001D384F8009000209F
:101FA00023E02378327808EBC3035B681A54401CA3
:101FB000C0B23C2816D3207808F83070401CC0B25C
:101FC0002070142801D384F800906946DAF80000E4
:101FD000FFF758F9227808EBC2014860A068401E5C
:101FE000A06000206D1EEDB2761C002DD9D160B12D
:101FF000217808F83100A068491C401EA060C8B2D2
:102000002070142801D384F80090A07818B9FFF745
:1020100015FF0120A070FFF77BFFAAE76C020020EC
:10202000500000205C0800207FB50446FFF78CFEBE
:10203000012144F20400FFF75BF9134D284600F03C
:1020400029F9684600F0DEF90020ADF80800ADF887
:1020500004000C21ADF80600ADF80A10ADF80C0034
:1020600000946946284600F06FF9012240F226618B
:10207000284600F050F9FFF756FE0121284600F0EF
:10208000F6F8FFF772FB7FBD0038014070B5104DC8
:102090002021284600F038F90E4C012807D12021D4
:1020A000284600F0E1F8207808B1FFF799FE4021BA
:1020B000284600F029F9012807D14021284600F0E0
:1020C000D3F8207808B1FFF7B9FE0120207070BD69
:1020D0000038014080020020014800F08BB9000068
:1020E00000440040FFF72ABF10B5114CD4E90301AA
:1020F00088421CD2FFF7F0FF0E4AE1685054491C99
:10210000E1602069814207D30020E06000F07CF8A4
:1021100008482169FFF7E6FFE078012803D0BDE811
:10212000104000F071B8BDE8104000F063B810BD79
:1021300084020020BC0900200146014800F05EB97D
:10214000004400402DE9F041274CA068142849D0F4
:1021500000F05CF8254D607815F8301059B1227800
:10216000904208D0491E05F8301005EBC0002179D7
:102170004068405C26E021781427002688422AD057
:1021800005EBC00041681A480068FFF76FF86078F7
:10219000401CC0B26070142800D36670A068401C58
:1021A000A060142800D3A760267160782178884247
:1021B0000ED015F83010491E05F8301005EBC000A0
:1021C00040680078FFF7B8FF2079401C207105E0D7
:1021D000A670A76002E0A670A7602671BDE8F04176
:1021E00000F00AB8BDE8F081840200201C0900203C
:1021F0005800002070470000012240F2266101488B
:1022000000F089B80044004070470000002240F20E
:102210002661014800F07FB80044004070B5104DC1
:102220002021284600F070F80E4C012807D120210B
:10223000284600F019F8207808B1FFF755FF402133
:10224000284600F061F8012807D14021284600F017
:102250000BF8207808B1FFF775FF0120207070BDE2
:102260000044004098020020C943018070470029C3
:10227000818902D041F4005101E021F400518181B3
:102280007047002A828A01D00A4300E08A43828292
:1022900070470000174910B588420AD101218C030C
:1022A0002046FFF731F82046BDE810400021FFF737
:1022B0002BB81149884202D101214C0410E00F498A
:1022C000884202D101218C040AE00D49884202D1E2
:1022D0000121CC0404E00B4988420AD101210C05FC
:1022E0002046FEF7F9FF2046BDE810400021FEF72A
:1022F000F3BF10BD003801400044004000480040DA
:10230000004C0040005000400246002012880A4263
:1023100000D00120704710B5C1F3421301F01F0433
:102320000121A140012B07D0022B07D01430002A35
:10233000026805D00A4304E00C30F8E71030F6E7F5
:102340008A43026010BD000030B50446008A85B0A3
:102350000D464CF6FF710840E98801432182A189AE
:102360004EF6F3100140A8882A8910436A890A436F
:102370001043A081A08A4FF6FF410840A98901437C
:10238000A1826846FEF7CCFF1948844201D1039828
:1023900000E00298A189090400EBC00101EB0010E4
:1023A000296801D5490000E08900B0FBF1F0642202
:1023B000B0FBF2F109010B096FF018056B4300EB5C
:1023C0008300A3891D044FF0320306D503EBC00040
:1023D000B0FBF2F000F0070005E003EB0010B0FBEB
:1023E000F2F000F00F000843208105B030BD00007E
:1023F000003801408088C0F308007047C1F308012D
:10240000818070474FF41651016000218180C180A6
:1024100001810C22428181817047FEE710B54FF4A3
:10242000E130FFF701FE102240210648FEF7E8FEEA
:102430000549486000F00AF80121BDE810401E205F
:10244000FFF7ACBC5C0400204C00002010B50E4827
:10245000FFF760FC0C482D30FFF75CFC0A484B305E
:10246000FFF758FC08486830FFF754FC06488B30EB
:10247000FFF750FC0448B730FFF74CFC0248BDE8BA
:102480001040DD30FFF746BCA43F00080FB4084BF6
:1024900010B504A902AA039800F020FA044602A984
:1024A000002000F0B2FD204610BC5DF814FB0000D7
:1024B0000B3000082DE9F0414F1E00EBC701044628
:1024C000D1E9000115461E4637F006020DD02A4616
:1024D0003346FDF7CAFF7F1E04EBC703D3E9002391
:1024E000FDF71CFF37F00602F1D1022F25D0042F93
:1024F00013D0062F18BFBDE8F0812A463346FDF7FA
:10250000B4FFD4E90A23FDF709FF2A463346FDF755
:10251000ACFFD4E90823FDF701FF2A463346FDF757
:10252000A4FFD4E90623FDF7F9FE2A463346FDF75A
:102530009CFFD4E90423FDF7F1FE2A463346FDF75C
:1025400094FFD4E90223FDF7E9FE2A463346FDF75E
:102550008CFFD4E90023BDE8F041FDF7DFBE0000A9
:102560000022134610460149FEF78AB90000F03FE9
:102570000122FDF7ECBF0022134610461146FEF77C
:102580007FB902E008C8121F08C1002AFAD17047BB
:102590007047002001E001C1121F002AFBD17047E3
:1025A00001490860704700009C02002008B5002027
:1025B0008DF800006B46012202212C2001F048F921
:1025C00002208DF8000001466B4601222C2001F00C
:1025D0003FF908BD38B504466D208DF800006B4604
:1025E000012240F606012E2001F032F941F60601E3
:1025F00014B140F2076201E041F207622E2001F0BF
:102600000BF938BD10B5002000F007F800220421B6
:10261000BDE81040362001F0FFB838B504466B46DF
:1026200002220021362000F08BFF0E2C2CD2DFE896
:1026300004F00F07152B2B2B2B1D392B2B44494E48
:1026400000208DF800009DF8010000F0FE0019E068
:102650009DF8000000F0FC00401C04E09DF8000024
:1026600000F0FC00801C8DF800000DE09DF80000DB
:1026700000F0B30040F048008DF800009DF8010024
:1026800040F080008DF801006B46012200213620C9
:1026900001F0DEF80122114636200DF1010301F0B0
:1026A000D7F838BD9DF8000000F0B3008DF80000A9
:1026B0009DF8010000F07F00E4E79DF8010040F084
:1026C0000200DFE79DF8010000F0FD00DAE79DF869
:1026D000000000F0CF0040F02000C4E708B5032060
:1026E0008DF8010001208DF800006B4602220021C8
:1026F000362001F0ADF84FF4004206212D2001F004
:102700008BF8012000F0D2FC0120FFF786FF08BD06
:1027100008B5010A8DF801108DF800006B46022201
:1027200004212D2001F094F803208DF800006B4661
:10273000012206212D2001F08BF800208DF80000E9
:102740006B46012206212D2001F082F80A212D205E
:1027500000F0C2FE08BD00002DE9FF5F82B000213D
:10276000DDE90430020DDDF840B0034318D044F633
:102770001050A2F2FF3242431514119801281FD0C5
:10278000A5EB0B00401C5FEA000A4FF000064E4F1D
:10279000DFF83891B046504615D5CAF1000413E071
:1027A000119801244AA3012801D16FEA0B01029874
:1027B000119AC0E90031C0E9024206B0BDE8F09FBD
:1027C000CBF10000DFE704460021404A491842EB04
:1027D0000450CDE9001012E0E00707D032463B4636
:1027E00040464946FDF741FE8046894632463B4613
:1027F00010461946FDF739FE06460F466410002CB8
:10280000EAD1DDE90401DDE90023BAF1000F06DABF
:10281000FDF72BFE42464B46FDF727FE05E0FEF78F
:102820002FF842464B46FEF72BF804460E46002290
:10283000284BFDF7E5FE03D84FF0FF30014607E0D7
:102840000022254B20463146FDF768FDFEF787F84C
:10285000102409E0002C0ADB0A220023FDF71AFFEE
:10286000039B30321A55641E50EA0102F2D1641CF7
:10287000039AC4F111031444119A012A03D00122CE
:1028800008430DD10AE0084304D000204FF0110B9B
:10289000119072E7A3EB0B056D1E0DE05B4504DDA7
:1028A0004FF0000205F1010504E003DA4FF00002E9
:1028B000A5F10105002AECD002981199C0E9023176
:1028C000C0E9004579E70000000014400000F03F37
:1028D000300000000000F0430000E03F2DE9FF4F12
:1028E00095B09B468946064600250FE2252877D1FC
:1028F00000242746F84A0121059400E0044316F815
:10290000013F203B01FA03F01042F7D130782A282A
:1029100011D06FF02F033078A0F13002092A16D8B9
:10292000059A44F0020402EB820203EB42021044D7
:10293000761C0590EFE759F8042B0592002A03DA7C
:10294000504244F40054059044F00204761C307860
:102950002E2816D116F8010F44F004042A280DD0B1
:102960006FF02F023078A0F13003092B09D807EB64
:10297000870302EB4303C718761CF3E759F8047B7F
:10298000761C30786C280FD006DC4C2817D06828CD
:102990000DD06A2814D104E0742810D07A280FD101
:1029A0000DE044F400140AE044F4801401E044F41F
:1029B00040147278824202D104F58014761C761C91
:1029C000307866280BD013DC582877D009DC002833
:1029D00075D04528F6D04628F4D047281AD19DE175
:1029E00018E0632835D0642879D0652812D195E1A4
:1029F000702873D008DC6728F1D069286FD06E2862
:102A00000DD06F2806D1B5E073282CD0752875D06D
:102A1000782874D05A46179990476D1C75E1C4F315
:102A20000250022809D003280DD0D9F8001004283C
:102A30000DD00D6009F1040967E1D9F80010EA171B
:102A4000C1E90052F6E7D9F800100D80F2E70D70E9
:102A5000F0E719F8041B8DF8001000208DF8010034
:102A6000EA46012003E059F804AB4FF0FF3061075C
:102A70004FF0000102D40DE008F101018846B9428F
:102A80000FDA8045F8DB1AF808100029F4D108E0C5
:102A900008F1010188468142FADB1AF80810002982
:102AA000F6D105985B46A0EB080721463846179AF1
:102AB00000F094FA284400EB080507E04DE029E116
:102AC0000DE01AF8010B5A4617999047B8F1010822
:102AD000F7D25B4621463846179A13E142E00A22B4
:102AE0000092C4F302524FF0000A022A08D059F8AB
:102AF00004CB032A4FEAEC710AD00DE029E02AE06A
:102B000009F1070121F00702F2E802C1914609E04C
:102B10000FFA8CFC4FEAEC71042A03D14FFA8CFCBB
:102B20004FEAEC71002907DA0A460021DCF1000CBB
:102B300061EB02012D2202E0220504D52B228DF843
:102B40000420012203E0E20701D02022F7E79046AB
:102B500059E00A2102E010220DE010214FF0000A96
:102B600000910BE010224FF0000A44F00404082703
:102B7000009203E008224FF0000A0092C4F30252D0
:102B8000022A05D059F804CB0021032A08D009E015
:102B900009F1070121F00702F2E802C1914605E0C0
:102BA0001FFA8CFC042A01D10CF0FF0C4FF0000836
:102BB000220728D5702806D0009B83F0100353EA23
:102BC0000A0305D00EE040228DF80420012208E01F
:102BD0005CEA010206D030228DF804208DF8050051
:102BE00002229046009B83F0080353EA0A030AD1AD
:102BF0005CEA010201D1620705D530228DF804207C
:102C00004FF001087F1E582804D034A003900EA86E
:102C100002900DE036A0F9E753466046009AFDF7B2
:102C200039FD84460398825C0298401E029002702F
:102C30005CEA0100F0D1029806A9081A00F1200A06
:102C4000600702D524F4803400E00127574502DDF7
:102C5000A7EB0A0000E0002000EB0A0100900598B5
:102C60004144401A0590E00306D45B462146179A7A
:102C7000059800F0B3F90544002706E001A85A467C
:102C8000C05D179990476D1C7F1C4745F6DBE0033C
:102C90000CD55B462146179A059800F09FF905442C
:102CA00004E030205A46179990476D1C0099481E41
:102CB00000900029F5DC08E0029802995A46007855
:102CC000491C0291179990476D1CBAF10001AAF1B5
:102CD000010AF1DC65E100000928010030313233DE
:102CE0003435363738396162636465660000000048
:102CF0003031323334353637383941424344454632
:102D00000000000000F058F90544761C30780028D7
:102D10007FF4ECAD19B02846BDE8F08F620700D40F
:102D2000062709F1070222F0070CFCE80223E1461E
:102D300003F000485FEA080C02D00FF2702C0DE09F
:102D40005FEA045C02D50FF2682C07E05FEAC47CFE
:102D500002D00FF2602C01E0AFF2700C4FF0FF38A0
:102D600023F00043CDF850C065280CD006DC452880
:102D700009D046281DD047283DD13DE0662818D00F
:102D800067287ED138E00021112F01DB112000E0FF
:102D9000781CCDE9000106A90EA8FFF7DDFCDDE9EE
:102DA0000F010E9A03910021009207F1010A04918C
:102DB0004DE04FF000400097CDE9011006A90EA8A4
:102DC000FFF7CAFCDDE90F0203920E9B1199002266
:102DD000DDF80CA00093049211B9791C00EB010AF4
:102DE000B7EB0A0004D4C0F1FF3007F1010A0490E8
:102DF000AAEB0700019044E0012F00DA012700212F
:102E0000112F01DD112000E03846CDE9000106A9AF
:102E10000EA8FFF7A1FCDDE90F010E9A0391002136
:102E200004910092BA4621070CD40399514500DA67
:102E30008A46BAF1010F05DD009AAAF10101515C41
:102E4000302908D0B84202DA10F1040F06DA012165
:102E5000CDE9011015E0AAF10101E9E7002805DC40
:102E6000049901440491AAEB000102E0411C514580
:102E700000DD8A460499401A401C01904FF0004042
:102E80000290200704D40198504501DBCDF804805E
:102E900000208DF84F0002980DF14F07B0F1004F60
:102EA00025D02B200E9002984FF0020800280CDA53
:102EB000404202902D200E9007E00A210298FDF773
:102EC000D3FB3031029007F8011DB8F10001A8F1E1
:102ED0000108F2DC02980028EFD1791E0E980870E4
:102EE000307800F0200040F0450007F8020D12A8ED
:102EF000C01B00F107081498007800B1012000EB16
:102F00000A01019801EBE07105984144401A401E06
:102F10000590E00306D45B462146179A059800F019
:102F20005DF805441498007818B15A4617999047EF
:102F30006D1CE00324D55B462146179A059800F0E6
:102F40004DF805441CE00498002807DBDDE9030187
:102F5000884203DD0098405C179901E01799302002
:102F60005A469047049805F10105401C04900198C9
:102F7000401E019004D12E205A46179990476D1C8F
:102F8000BAF10001AAF1010ADDDC05E017F8010B36
:102F90005A46179990476D1CB8F10001A8F1010835
:102FA000F4DC5B462146179A0598ABE62D0000003D
:102FB0002B000000200000002DE9F0410446002510
:102FC0001E461746880404D405E039462020B04741
:102FD0006D1C641EF9D52846BDE8F0812DE9F0414D
:102FE000044600251E469046C80301D5302700E060
:102FF0002027880404D505E041463846B0476D1CBB
:10300000641EF9D52846BDE8F0810A68531C0B60A0
:103010001070704701498860704700004C00002024
:103020002DE9F0410E468046012A22D01848194D5C
:10303000FDF7BAFA0C46074631460846FDF7FEF89A
:1030400001464046FDF72CF9FDF7AEFA00F012FEFE
:103050000022114BFDF709FA3A462346FDF7FFF926
:10306000FDF7E6FA04460D48844205D32046BDE844
:10307000F0810B480B4DDBE70B492046FDF786F846
:103080002946FDF7DBF82146BDE8F041FDF77EB8A3
:10309000E17AF3426D56953F000024400000B0C233
:1030A000A470E7426D5615400000B04210B50446CA
:1030B00000F094FE04EB000400F090FE001B0028DA
:1030C000FADD10BD002804D04FF0E0214020C1F807
:1030D0000001704710B50620FDF7CCFD002804D094
:1030E0004FF0E0224021C2F8801110BD70B520469B
:1030F00000F008FA6089FDF741FA0546A089FDF75E
:103100003DFA04464FF090412846FDF797F80349F1
:103110004A782146BDE87040FFF782BF14000020C6
:103120002DE9F84F04460578407978494FF00009B9
:10313000C84631F8107061787548491ECEB20163F7
:10314000042D75D0072D73D000218A462178017394
:103150006F49E2798969002A6CD021F4800181618C
:10316000217A4173217A4FF44033826903EA0141A5
:103170000A43834682610021042000F05AFB3A464C
:1031800042F604012E2000F047FB3046FFF722FAFA
:10319000604F61490522785D00EB800043180721EC
:1031A0002B2000F055FB5D49012201EB0A030B21A6
:1031B000282000F04DFB785D594951F820200C2162
:1031C000282000F036FBE079564901EB8000A17918
:1031D00030F811200221272000F01EFB5248042164
:1031E00030F81620272000F017FBE07938B3A078DC
:1031F00004282AD028208DF800002022062127202C
:1032000000F00AFB6B4601222621272000F020FB5C
:103210004648E17800EB061050F8212008212720CD
:1032200000F007FBB4F80900A0B117E000E001E0EE
:1032300001218AE741F48001FF08816190E764225F
:103240000621272000F0E8FAE2E710208DF80000C0
:103250000246D3E741F24100A4F80900B4F809207E
:103260002021272000F0D8FA314F0C2123203A6882
:1032700000F0DFFA07EB460004218288232000F0EB
:10328000CBFAA07958B1E0792A49012243180021EC
:10329000212000F0DDFA4FF003094FF0010805F09E
:1032A0000F00290740EA116061784FF4402202EADA
:1032B00081410843920002EA095108434FF4003269
:1032C00002EA4841084321794FF0F86202EA81514D
:1032D0000843617940EAC16200211F2000F0A9FA89
:1032E000A07861784FF4004308430204CBF8102023
:1032F000E179082043EA41310A430021CBF810204C
:1033000000F097FA0020BDE8F88F00001C47000885
:10331000800300209E460008C0460008DE460008E4
:10332000A8460008EC460008F8460008FC460008DD
:10333000E0460008E846000810B5044600210420D5
:1033400000F0CAF80A4908403CB120F4FF7004F4C8
:10335000FF71014341F0010201E020F00102054844
:1033600000218261BDE81040042000F062BA000034
:10337000FFFF47F08003002038B540208DF80000A3
:1033800000210E2000F0A8F80446FFF7A3FE054632
:10339000002211460E2000F04CFA6B46012200215B
:1033A0000D2000F055FA0A4A00210F2000F041FAE2
:1033B00000F018FA224600210E2000F03AFA2846C2
:1033C000FFF780FE0349002081F82C0038BD000083
:1033D000F8FF2724800300207CB50546334C0420E9
:1033E0008DF8000000216175216384F8251084F8B0
:1033F0002C10A1836163A16300F0BAF900F07EF89C
:103400002B492060884201D001207CBD0020FFF7BD
:1034100004F96B4601220021242000F019FA1E2035
:10342000FFF776F986B2300AA0730420FFF770F92F
:1034300010F0FF0F0CD002208DF8040001AB012228
:1034400012212D2000F004FAA08B40F48050A083BC
:103450000620FFF75DF960600720FFF759F9A060CB
:1034600016F01F00207501D110202075C0B200F0A9
:103470000EFAE80706D0FFF731F9A08B40F40060A0
:10348000A08309E00521362000F014F820F4007232
:103490000521362000F0C0F90120FFF7BEF8002119
:1034A000042000F019F8A06100207CBD80030020FA
:1034B0003001CADE38B5012489B280B26B460222DF
:1034C00000F03EF830B99DF800009DF8011000EBC7
:1034D000012084B2204638BD38B5012489B280B2BB
:1034E0006B46042200F02CF830B903216846425C98
:1034F000491E02EB0424FAD5204638BD00210846B7
:10350000FFF7EABF10B5044605211520FFF7D2FFEB
:10351000E08100212E20FFF7CDFF2080231D08220F
:103520000021122000F00CF807211520FFF7C2FF40
:10353000608000211020FFF7CFFF000DA08110BD9B
:1035400008B551B140F040008DF80000C8B27F29A5
:1035500007D88DF8010002200BE08DF80000012053
:1035600007E040F080008DF80100C8098DF80200E6
:103570000320694600F038FC08BD30B414460A4602
:103580002146034630BC1120FFF7DABF38B50546A7
:1035900000208DF8000000F025F94FF480742246D9
:1035A0000DB14FF4407200210D2000F035F995B1B6
:1035B0006B46012203210F20FFF7C2FF9DF8000098
:1035C000000708D5FFF7D8FE224600210D2000F0A5
:1035D00023F9012038BD002038BD08B5E0208DF862
:1035E00000006B4601220321362000F031F9F02063
:1035F0008DF800006B4601220321362000F028F9E7
:1036000008BD02460021032000F006B970B50E4641
:103610000446FFF75FFD054600210E20FFF75CFF23
:103620000EB1204300E0A043024600210E2000F02E
:1036300000F92846BDE87040FFF744BD38B50446A0
:10364000C0076B464FF002024FF000014FF026001A
:103650002DD0FFF775FF9DF80100012220F03C00FE
:1036600040F014008DF80100114626200DF10103F1
:1036700000F0EEF86B46012202213620FFF760FFD2
:103680009DF800006B4640F084008DF80000012298
:103690000221362000F0DCF810208DF80000012017
:1036A0008DF80100022228216B4636200BE0FFF73F
:1036B00047FF9DF801006B4620F014008DF80100D3
:1036C00002220021262000F0C3F8A00711D50F2008
:1036D0008DF800006B4601222A21362000F0B8F850
:1036E00000208DF800006B4601222A21362000F0D0
:1036F000AFF838BD02460221032000F08DB8024623
:1037000041F604012E2000F087B8000038B50546C8
:103710006B46012203210420FFF712FF104C75B104
:103720002A4600210C2000F077F89DF8000040F0B8
:1037300010008DF80000A06940F0805008E09DF86E
:10374000000020F010008DF80000A06920F08050EB
:10375000A0616B4601220321042000F079F838BDF6
:103760008003002002460021182000F055B8000018
:1037700038B500240094FEF745FF002211462C20A6
:1037800000F04AF86B46012206212C2000F060F878
:10379000FEF70CFF6B46012203213620FFF7D0FE17
:1037A0009DF800006B4600F00F008DF8000001222C
:1037B0000321362000F04CF80120FFF777FC9DF83C
:1037C00000006B4640F0F0008DF80000012203215C
:1037D000362000F03DF8024880F82C4038BD00004B
:1037E000800300201CB56B46012203210F20FFF748
:1037F000A7FE9DF8000000F0800100F04000B1EB52
:10380000400F08D001208DF80400024601AB0321CF
:103810000D2000F01DF81CBD08B589B28DF8002000
:10382000120A8DF8012080B26B46022200F010F8D7
:1038300008BD38B500236C46E254120A5B1C042B09
:10384000FADB89B280B22346042200F001F838BDC9
:1038500008B551B140F0C0008DF80000C8B27F2912
:1038600009D88DF8010002200DE040F080008DF8AD
:103870000000012007E040F080008DF80100C80939
:103880008DF802000320694600F05AFB08BD38B5E8
:1038900004466B4601220E212B20FFF751FE9DF8B6
:1038A000000004F01F0120F01F0001438DF80010FC
:1038B0006B4601220E212B20FFF7CAFF38BD000006
:1038C0000100094808D0012908D0022908D003299D
:1038D00008D10E21FDF7F0BA0221FBE70421F9E738
:1038E0000821F7E77047000000080140010009487F
:1038F00008D0012908D0022908D0032908D10E21B7
:10390000FDF7DCBA0221FBE70421F9E70821F7E71C
:1039100070470000000801402DE9F04DC84A00241E
:1039200090B0914205DA21F00043934201D805D1CD
:1039300020B110B0BDE8F04DFEF71ABEB1F5801F02
:103940001BDA53EA000209D0002911DA0120FEF740
:1039500027FE10B0BDE8F04DFEF70DBE0220FEF7C9
:103960001FFEFEF7FDFD10B081F00041BDE8F08DB7
:103970006FF035043622FCF7EAFD04EB2152C1F367
:103980001308B049A2F2FF33414401F4801282F0DF
:103990007F6103EB225281F04051009241EA08011D
:1039A0000022A94BFCF75BFD044608F10200A74E7C
:1039B000C0F313000D467E44032867D2D6E90023E6
:1039C0002046FCF705FE1ED10098002802BFD6E96C
:1039D000000110B0BDE8F08DFCF7D5FD07460C46A0
:1039E0009B4A9C4BFCF741FD06460D469A4A9B4B71
:1039F00038462146FCF739FD10B032462B46BDE86B
:103A0000F04DFCF78BBC4FF05532954B20462946C4
:103A1000FCF72BFD0022934BFCF724FD06460F46D6
:103A200022462B4610461946FCF71FFD32463B4600
:103A3000FCF71BFD064600980F46F0B1FCF7A3FD0E
:103A400080468A46824A834BFCF70FFD32463B464E
:103A5000FCF708FD22462B46FCF701FD05460C4607
:103A60007D4A7E4B40465146FCF7FFFC10B02A468B
:103A70002346BDE8F04DFCF7F2BC0B4610B03246D1
:103A800020462946BDE8F04DFCF7E9BC00224FF086
:103A900080432046FCF742FC02460B46204629465E
:103AA000FCF7EEFE06460F460098FCF76CFDCDE9EC
:103AB000040132463B4610463946FCF7D6FC0C90D2
:103AC00069480C9A4044019009910B461046FCF756
:103AD000CCFC8246024665488B46C8F151080B462D
:103AE00008F5D72803217844FEF7E4FC52465B46EC
:103AF000FCF7BBFC0A905E480D9152465B460421E0
:103B00007844FEF7D7FC099B0C9AFCF7AEFC844680
:103B100001980D9B40EA080860460A9AFCF7FEFBF4
:103B200083460891B8F1000F4EDD4FF0FF3220467A
:103B30002946FCF70CFD22462B46FCF796FC8046F6
:103B400000988A4660B3DDE90401414A414BFCF725
:103B50008CFC099100905A4640465146089BFCF760
:103B6000DDFB32463B46FCF780FC099B009AFCF7E4
:103B7000D5FB42465346FCF775FC22462B46FCF724
:103B80006EFC04460D46DDE90401334A334BFCF775
:103B90006CFC10B022462B46BDE8F04DFCF75FBC34
:103BA0005A464046089BFCF7B9FB32463B46FCF7B9
:103BB0005CFC42465346FCF755FC10B022462B46AF
:103BC000BDE8F04DFCF74EBC009840B3DDE90401C0
:103BD0001F4A204BFCF749FC80468A465A4620463D
:103BE0002946089BFCF73BFC32463B46FCF73DFC74
:103BF00042465346FCF733FC22462B46FCF72FFC8B
:103C000004460D46DDE90401134A144BFCF72DFC74
:103C100010B022462B46BDE8F04DFCF720BC0B4609
:103C20005A4620462946FCF71AFC32463B46FCF72A
:103C30001CFC10B022462B46BDE8F04DFCF712BC30
:103C40000000F07F645F09000000F03FCE0D00002F
:103C5000763C7935EF39EA3D0000E0FE422EE63F42
:103C60005555D53F0000E03F86EBF9FF660C00009C
:103C7000640C00002DE9F0410446304800258142E3
:103C800005DA21F00042824201D805D124B1204654
:103C9000BDE8F041FEF76CBCB1F5801F1BDA52EABB
:103CA000040008D000290FDA0120FEF779FCBDE8F6
:103CB000F041FEF760BC0220FEF772FCFEF750FCFC
:103CC00081F00041BDE8F0816FF0350536222046D5
:103CD000FCF73DFC044605EB2150A0F2FF32D00F6B
:103CE00040F2FF331B1A0D4663F31F551044FCF7D7
:103CF0004AFC06460F4629462046FFF70DFE104AAD
:103D0000104BFCF7B2FB04460D460F4A0F4B3046F2
:103D10003946FCF7AAFB22462B46FCF7FFFA05467C
:103D20000C460B4A0B4B30463946FCF79EFB2A46A5
:103D30002346BDE8F041FCF7F1BA00000000F07F37
:103D40000EE526157BCBDB3F362BF111F3FE593DFB
:103D500000609F501344D33F10B500F009F8FCF702
:103D600083FEFCF753FE00F0A7F8002010BD000012
:103D700010B501217D20FDF7BBFA01210803FDF7F5
:103D8000B7FAFCF7C9FFFDF78DFCFDF72DFBFDF73A
:103D900057F9FDF737F9FEF741FBFDF79AF8FDF704
:103DA000B3F8002105A20846FDF7D2F90221BDE8CB
:103DB000104006A20020FDF7CBB9000020202035DE
:103DC00031555742204E6F64650000002020777700
:103DD000772E35317577622E636E000001480068DA
:103DE00070470000000000202DE9F05F1D461646D8
:103DF0008A4607460024FFF76DF918494FF010096D
:103E00008346C1F80090DFF858800DE01AF80410DE
:103E1000A8F80C1001214046FDF768FB0028F9D0F6
:103E2000B8F80C002870641CBC42EFDB002002468E
:103E3000414606E08A810B89DB07FCD08B892B5435
:103E4000401CB042F6D30549091FC1F800905846FE
:103E5000FFF738F90020BDE8F09F0000140801408A
:103E600000300140F8B51024ADF80040114E8DF837
:103E7000034003258DF8025069463046FCF79EFF4B
:103E800010213046FDF718F80A20FFF70FF910212E
:103E90003046FDF713F8ADF8004000208DF8030020
:103EA0008DF8025069463046FCF788FF0220FFF784
:103EB000FDF8F8BD000C01409AB0642101A8FCF7A0
:103EC0005AF90020FFF722FC0820FFF735FA0020FE
:103ED000FFF75CFB0F48FFF79DF84FF47A70FDF792
:103EE000C3FC0D4D0D4C002628680128FCD12E6026
:103EF0002068FCF759FB6268009202460B4608A155
:103F000001A8FEF7C3FA01AA042100206660FDF7AC
:103F10001FF9E9E7011600084C000020040000200A
:103F2000525353493A25322E326664422C2564207E
:103F3000000000000820FDF743BA2020FDF740BA3A
:103F40002DE9F041984615460F4606460024FFF736
:103F5000C1F80246114810230360114806E0395D9C
:103F600081810189C907FCD08189641CB442F6DBD8
:103F7000002107E018F8014084810489E407FCD09F
:103F80008489491CA942F5D30448001F03601046E8
:103F9000FFF798F80020BDE8F08100001408014008
:103FA000003001402F2A2A2A2A2A2A2A2A2A2A2AA3
:103FB0002A2A2A2A2A2A2A2A2A20202A2A2A2A2A75
:103FC0002A2A2A2A2A2A2A2A2A2A2A2A2A2A2A0A71
:103FD000002A20D7F7D5DF202020202020202020F5
:103FE0002020202020203A2035315557420A002A2F
:103FF00020B0E6B1BE20202020202020202020203C
:10400000202020203A2056312E320A002A20C8D5FE
:10401000C6DA202020202020202020202020202040
:10402000203A2031312F31372F323031390A002AEE
:1040300020C3E8CAF6202020202020202020202095
:10404000202020203A205557422054582F525820E3
:104050004672616D65576F726B0A002A20B9A6C45B
:10406000DC20202020202020202020202020202094
:104070003A20777777772E35317577622E636E0A1F
:10408000002A2A2A2A2A2A2A2A2A2A2A2A2A2A2ABA
:104090002A2A2A2A2A2A2A2A2A2A2A2A2A2A2A2A80
:1040A0002A2A2A2A2A2A2A2A2A2A2A2A0A0000000E
:1040B0000000000000000000000000000000000000
:1040C00000F8000000000000003330000000001085
:1040D0000C06100C0600000000000000000040C0AC
:1040E0007840C0784000043F04043F04040000709E
:1040F00088FC08300000001820FF211E0000F00896
:10410000F000E018000000211C031E211E0000F03A
:104110000888700000001E21232419272110101682
:104120000E00000000000000000000000000000081
:1041300000E0180402000000000718204000000200
:104140000418E00000000040201807000000404074
:1041500080F0804040000202010F010202000000D6
:1041600000F0000000000101011F0101010000003A
:1041700000000000000080B070000000000000009F
:104180000000000000000001010101010101000028
:1041900000000000000000303000000000000000BF
:1041A000000080601804006018060100000000E0B4
:1041B00010080810E000000F102020100F00001061
:1041C00010F8000000000020203F202000000070B8
:1041D00008080888700000302824222130000030B0
:1041E0000888884830000018202020110E000000A8
:1041F000C02010F8000000070424243F240000F829
:104200000888880808000019212020110E0000E00D
:10421000108888180000000F112020110E000038AF
:104220000808C83808000000003F000000000070C7
:10423000880808887000001C222121221C0000E050
:1042400010080810E0000000312222110F000000C9
:1042500000C0C0000000000000303000000000007E
:1042600000800000000000008060000000000000EE
:104270008040201008000001020408102000404087
:1042800040404040400004040404040404000008CA
:10429000102040800000002010080402010000707F
:1042A00048080808F0000000003036010000C03067
:1042B000C828E810E0000718272423140B0000008A
:1042C000C038E0000000203C23020227382008F814
:1042D000888888700000203F202020110E00C03008
:1042E000080808083800071820202010080008F8DF
:1042F00008080810E000203F202020100F0008F8D8
:104300008888E8081000203F20202320180008F8A3
:104310008888E8081000203F200003000000C0301B
:1043200008080838000007182020221E020008F89C
:1043300008000008F808203F210101213F20000863
:1043400008F8080800000020203F2020000000009E
:104350000808F8080800C08080807F00000008F886
:1043600088C028180800203F20012638200008F8BF
:10437000080000000000203F20202020300008F826
:10438000F800F8F80800203F003F003F200008F840
:1043900030C00008F808203F200007183F00E01058
:1043A00008080810E0000F10202020100F0008F867
:1043B00008080808F000203F210101010000E0107A
:1043C00008080810E0000F18242438504F0008F89F
:1043D000888888887000203F2000030C30200070FF
:1043E0008808080838000038202121221C001808FD
:1043F00008F8080818000000203F2000000008F816
:1044000008000008F808001F202020201F0008785E
:10441000880000C83808000007380E010000F808BE
:1044200000F80008F800033C0700073C03000818E8
:1044300068808068180820302C03032C302008384E
:10444000C800C83808000000203F20000000100805
:104450000808C8380800203826212020180000004D
:1044600000FE020202000000007F40404000000CFD
:1044700030C000000000000000010638C00000024B
:104480000202FE000000004040407F0000000000EB
:10449000040202020400000000000000000000000E
:1044A000000000000000808080808080808000020A
:1044B00002040000000000000000000000000000F6
:1044C0008080808000000019242222223F2008F8EA
:1044D000008080000000003F112020110E0000002D
:1044E000008080800000000E1120202011000000BC
:1044F00000808088F800000E112020103F2000006E
:10450000808080800000001F222222221300008071
:1045100080F0888888180020203F202000000000BC
:10452000808080808000006B94949493600008F8F1
:10453000008080800000203F210000203F2000807C
:104540009898000000000020203F2020000000007C
:1045500000809898000000C08080807F000008F8EC
:10456000000080808000203F24022D3020000008C1
:1045700008F8000000000020203F2020000080807C
:10458000808080808000203F20003F20003F80808E
:10459000008080800000203F210000203F2000009C
:1045A000808080800000001F202020201F0080804D
:1045B00000808000000080FFA12020110E0000007C
:1045C000008080808000000E112020A0FF8080806D
:1045D00080008080800020203F212000010000001A
:1045E00080808080800000332424242419000080EF
:1045F00080E0808000000000001F202000008080FC
:10460000000000808000001F202020103F208080BC
:1046100080000080808000010E300806010080804C
:104620000080008080800F300C030C300F00008071
:104630008000808080000020312E0E31200080809C
:1046400080000080808080818E70180601000080CC
:104650008080808080000021302C222130000000EA
:104660000000807C020200000000003F404000008B
:104670000000FF00000000000000FF00000000023A
:10468000027C800000000040403F00000000000667
:10469000010102020404000000000000000000000C
:1046A0000102030400050000405C0000A05C04005F
:1046B000C06C0800805C0400E03F1E00E07D1E002E
:1046C000070400091E08054008260910400856087E
:1046D000054008261D040008BE1D040008BED8BC05
:1046E00007A9022570889B88401008000A00160060
:1046F000010006000100020087008D002D001A3124
:1047000052001A339A001A351D011A376B003B31DB
:10471000BE003B335E013B3596023B3700009959A2
:104720009959EB518F421E45142E0080EB51F5280C
:104730003333E13A703DE13AC235852BC23533332C
:10474000C235C235AE47E13A5138A3305138000086
:1047500004FA97999999D93FAF788E1DC571CC3FCE
:104760009FC678D0099AC33F935555555555E53F97
:10477000599322942449D23FDE03CB966446C73F27
:1047800044523EDF12F1C23F000000000000000072
:10479000B047000800000020A0020000B409000893
:1047A000D0480008A0020020400B0000922500081D
:1047B00001142008020208020909012B21040E44F9
:1047C0000406082D010203040435060708092BA27C
:1047D0004A1D519916D1194221163E22E2223E2B42
:1047E000FE22010311E20217203F201F11112B7F2F
:1047F000440103114740180D040404F484D4A5A611
:10480000A4D484F40C0112000E12FE0202123A1615
:1048100013121A3242827E18094040405F555555A6
:1048200075041A5F0C091121080C11200F09498920
:10483000790909090F201F19602D424ACA4A030449
:10484000134202FE000E14FF40504C4340404F50B4
:10485000505C40FF1BF888012AFF050215F81B1F5A
:1048600008012A7F2004119F80F03B80820100090B
:1048700016E2A2928A86828080041840807F1724E4
:1048800024A4FEA3221B22CCAA011415080601FFB2
:104890002B0104010511FF0202025808101010FF3D
:1048A000109008C3021108080F100444827F018091
:1048B0008040432C10284681A0800DE2A1C82481AD
:1048C000232C2E2FA4A6AF021714091218000000E3
:0400000508000131BD
:00000001FF
